{"abi":[{"type":"constructor","inputs":[{"name":"_grantStream","type":"address","internalType":"address"},{"name":"_owner","type":"address","internalType":"address"}],"stateMutability":"nonpayable"},{"type":"receive","stateMutability":"payable"},{"type":"function","name":"addGrant","inputs":[{"name":"grantId","type":"uint256","internalType":"uint256"}],"outputs":[],"stateMutability":"nonpayable"},{"type":"function","name":"batchClaim","inputs":[{"name":"grantIds","type":"uint256[]","internalType":"uint256[]"},{"name":"amounts","type":"uint256[]","internalType":"uint256[]"}],"outputs":[],"stateMutability":"nonpayable"},{"type":"function","name":"claimFromGrant","inputs":[{"name":"grantId","type":"uint256","internalType":"uint256"},{"name":"amount","type":"uint256","internalType":"uint256"}],"outputs":[],"stateMutability":"nonpayable"},{"type":"function","name":"consolidatedGrants","inputs":[{"name":"","type":"uint256","internalType":"uint256"}],"outputs":[{"name":"","type":"uint256","internalType":"uint256"}],"stateMutability":"view"},{"type":"function","name":"getConsolidatedGrants","inputs":[],"outputs":[{"name":"","type":"uint256[]","internalType":"uint256[]"}],"stateMutability":"view"},{"type":"function","name":"getVaultSummary","inputs":[],"outputs":[{"name":"totalVaultBalance","type":"uint256","internalType":"uint256"},{"name":"numberOfGrants","type":"uint256","internalType":"uint256"},{"name":"totalClaimedHistory","type":"uint256","internalType":"uint256"}],"stateMutability":"view"},{"type":"function","name":"grantDetails","inputs":[{"name":"","type":"uint256","internalType":"uint256"}],"outputs":[{"name":"originalGrantId","type":"uint256","internalType":"uint256"},{"name":"grantor","type":"address","internalType":"address"},{"name":"totalClaimed","type":"uint256","internalType":"uint256"},{"name":"exists","type":"bool","internalType":"bool"}],"stateMutability":"view"},{"type":"function","name":"grantStream","inputs":[],"outputs":[{"name":"","type":"address","internalType":"contract GrantStream"}],"stateMutability":"view"},{"type":"function","name":"owner","inputs":[],"outputs":[{"name":"","type":"address","internalType":"address"}],"stateMutability":"view"},{"type":"function","name":"renounceOwnership","inputs":[],"outputs":[],"stateMutability":"nonpayable"},{"type":"function","name":"totalReceivedPerGrantor","inputs":[{"name":"","type":"address","internalType":"address"}],"outputs":[{"name":"","type":"uint256","internalType":"uint256"}],"stateMutability":"view"},{"type":"function","name":"transferOwnership","inputs":[{"name":"newOwner","type":"address","internalType":"address"}],"outputs":[],"stateMutability":"nonpayable"},{"type":"function","name":"withdraw","inputs":[{"name":"to","type":"address","internalType":"address payable"},{"name":"amount","type":"uint256","internalType":"uint256"}],"outputs":[],"stateMutability":"nonpayable"},{"type":"event","name":"FundsConsolidated","inputs":[{"name":"grantId","type":"uint256","indexed":true,"internalType":"uint256"},{"name":"grantor","type":"address","indexed":true,"internalType":"address"},{"name":"amount","type":"uint256","indexed":false,"internalType":"uint256"}],"anonymous":false},{"type":"event","name":"GrantAdded","inputs":[{"name":"grantId","type":"uint256","indexed":true,"internalType":"uint256"},{"name":"grantor","type":"address","indexed":true,"internalType":"address"}],"anonymous":false},{"type":"event","name":"OwnershipTransferred","inputs":[{"name":"previousOwner","type":"address","indexed":true,"internalType":"address"},{"name":"newOwner","type":"address","indexed":true,"internalType":"address"}],"anonymous":false},{"type":"event","name":"Withdrawal","inputs":[{"name":"to","type":"address","indexed":true,"internalType":"address"},{"name":"amount","type":"uint256","indexed":false,"internalType":"uint256"}],"anonymous":false},{"type":"error","name":"OwnableInvalidOwner","inputs":[{"name":"owner","type":"address","internalType":"address"}]},{"type":"error","name":"OwnableUnauthorizedAccount","inputs":[{"name":"account","type":"address","internalType":"address"}]},{"type":"error","name":"ReentrancyGuardReentrantCall","inputs":[]}],"bytecode":{"object":"0x60a060405234801561000f575f5ffd5b5060405161106038038061106083398101604081905261002e91610149565b806001600160a01b03811661005d57604051631e4fbdf760e01b81525f60048201526024015b60405180910390fd5b610066816100df565b50600180556001600160a01b0382166100cd5760405162461bcd60e51b815260206004820152602360248201527f4772616e74436f6e736f6c696461746f723a207a65726f206772616e7453747260448201526265616d60e81b6064820152608401610054565b506001600160a01b031660805261017a565b5f80546001600160a01b038381166001600160a01b0319831681178455604051919092169283917f8be0079c531659141344cd1fd0a4f28419497f9722a3daafe3b4186f6b6457e09190a35050565b80516001600160a01b0381168114610144575f5ffd5b919050565b5f5f6040838503121561015a575f5ffd5b6101638361012e565b91506101716020840161012e565b90509250929050565b608051610ec06101a05f395f81816101f40152818161038d0152610a850152610ec05ff3fe6080604052600436106100c2575f3560e01c8063c55e4a0e1161007c578063e8d498d311610057578063e8d498d314610235578063f2fde38b14610254578063f3fef3a314610273578063f7c83b4914610292575f5ffd5b8063c55e4a0e146101b4578063c7d4f9af146101e3578063e27c054114610216575f5ffd5b80630b1a8f26146100cd57806318078359146100ee578063715018a61461010d57806378f923c4146101215780638da5cb5b1461014b5780639a2c6cb61461017b575f5ffd5b366100c957005b5f5ffd5b3480156100d8575f5ffd5b506100ec6100e7366004610c01565b61030a565b005b3480156100f9575f5ffd5b506100ec610108366004610c60565b6105c3565b348015610118575f5ffd5b506100ec610689565b34801561012c575f5ffd5b5061013561069c565b6040516101429190610ccc565b60405180910390f35b348015610156575f5ffd5b505f546001600160a01b03165b6040516001600160a01b039091168152602001610142565b348015610186575f5ffd5b506101a6610195366004610d22565b60046020525f908152604090205481565b604051908152602001610142565b3480156101bf575f5ffd5b506101c86106f2565b60408051938452602084019290925290820152606001610142565b3480156101ee575f5ffd5b506101637f000000000000000000000000000000000000000000000000000000000000000081565b348015610221575f5ffd5b506100ec610230366004610d44565b61074f565b348015610240575f5ffd5b506101a661024f366004610c01565b610776565b34801561025f575f5ffd5b506100ec61026e366004610d22565b610795565b34801561027e575f5ffd5b506100ec61028d366004610d64565b6107d2565b34801561029d575f5ffd5b506102e06102ac366004610c01565b600360208190525f9182526040909120805460018201546002830154929093015490926001600160a01b0316919060ff1684565b604080519485526001600160a01b0390931660208501529183015215156060820152608001610142565b6103126109a4565b5f818152600360208190526040909120015460ff16156103885760405162461bcd60e51b815260206004820152602660248201527f4772616e74436f6e736f6c696461746f723a206772616e7420616c726561647960448201526508185919195960d21b60648201526084015b60405180910390fd5b5f5f5f7f00000000000000000000000000000000000000000000000000000000000000006001600160a01b0316630c0debea856040518263ffffffff1660e01b81526004016103d991815260200190565b61012060405180830381865afa1580156103f5573d5f5f3e3d5ffd5b505050506040513d601f19601f820116820180604052508101906104199190610da2565b5050505094505050925092508061047e5760405162461bcd60e51b815260206004820152602360248201527f4772616e74436f6e736f6c696461746f723a206772616e74206e6f742061637460448201526269766560e81b606482015260840161037f565b6001600160a01b03821630146104ec5760405162461bcd60e51b815260206004820152602d60248201527f4772616e74436f6e736f6c696461746f723a20636f6e736f6c696461746f722060448201526c1b9bdd081c9958da5c1a595b9d609a1b606482015260840161037f565b604080516080810182528581526001600160a01b0385811660208084018281525f8587018181526001606088018181528d845260039586905289842098518955935188820180546001600160a01b031916919098161790965551600280880191909155915195909201805460ff191695151595909517909455835492830184559283527f405787fa12a823e0f2b7631cc41b3ba8828b3321ca811111fa75cd3aa3bb5ace909101879055915186917f94f0100ff88869b16c68be7407b30320f93a26a06f2edc874e738e905230fe0f91a350505050565b6105cb6109a4565b6105d36109d0565b82811461062d5760405162461bcd60e51b815260206004820152602260248201527f4772616e74436f6e736f6c696461746f723a206c656e677468206d69736d61746044820152610c6d60f31b606482015260840161037f565b5f5b838110156106795761067185858381811061064c5761064c610e36565b9050602002013584848481811061066557610665610e36565b905060200201356109fa565b60010161062f565b5061068360018055565b50505050565b6106916109a4565b61069a5f610bb2565b565b606060028054806020026020016040519081016040528092919081815260200182805480156106e857602002820191905f5260205f20905b8154815260200190600101908083116106d4575b5050505050905090565b60025447905f805b6002548110156107495760035f6002838154811061071a5761071a610e36565b905f5260205f20015481526020019081526020015f20600201548261073f9190610e5e565b91506001016106fa565b50909192565b6107576109a4565b61075f6109d0565b61076982826109fa565b61077260018055565b5050565b60028181548110610785575f80fd5b5f91825260209091200154905081565b61079d6109a4565b6001600160a01b0381166107c657604051631e4fbdf760e01b81525f600482015260240161037f565b6107cf81610bb2565b50565b6107da6109a4565b6107e26109d0565b6001600160a01b0382166108385760405162461bcd60e51b815260206004820152601f60248201527f4772616e74436f6e736f6c696461746f723a207a65726f206164647265737300604482015260640161037f565b475f82156108465782610848565b815b9050818111156108aa5760405162461bcd60e51b815260206004820152602760248201527f4772616e74436f6e736f6c696461746f723a20696e73756666696369656e742060448201526662616c616e636560c81b606482015260840161037f565b5f846001600160a01b0316826040515f6040518083038185875af1925050503d805f81146108f3576040519150601f19603f3d011682016040523d82523d5f602084013e6108f8565b606091505b50509050806109555760405162461bcd60e51b8152602060048201526024808201527f4772616e74436f6e736f6c696461746f723a207769746864726177616c2066616044820152631a5b195960e21b606482015260840161037f565b846001600160a01b03167f7fcf532c15f0a6db0bd6d0e038bea71d30d808c7d98cb3bf7268a95bf5081b658360405161099091815260200190565b60405180910390a250505061077260018055565b5f546001600160a01b0316331461069a5760405163118cdaa760e01b815233600482015260240161037f565b6002600154036109f357604051633ee5aeb560e01b815260040160405180910390fd5b6002600155565b5f828152600360208190526040909120015460ff16610a665760405162461bcd60e51b815260206004820152602260248201527f4772616e74436f6e736f6c696461746f723a206772616e74206e6f7420616464604482015261195960f21b606482015260840161037f565b60405163c349026360e01b8152600481018390526024810182905247907f00000000000000000000000000000000000000000000000000000000000000006001600160a01b03169063c3490263906044015f604051808303815f87803b158015610ace575f5ffd5b505af1158015610ae0573d5f5f3e3d5ffd5b505050505f8147610af19190610e77565b90508015610683575f8481526003602052604081206002018054839290610b19908490610e5e565b90915550505f848152600360209081526040808320600101546001600160a01b03168352600490915281208054839290610b54908490610e5e565b90915550505f848152600360209081526040918290206001015491518381526001600160a01b039092169186917fc9723f3dcdcaa358d9b720600c5201d32c617136872106b5ab573ced95263eb2910160405180910390a350505050565b5f80546001600160a01b038381166001600160a01b0319831681178455604051919092169283917f8be0079c531659141344cd1fd0a4f28419497f9722a3daafe3b4186f6b6457e09190a35050565b5f60208284031215610c11575f5ffd5b5035919050565b5f5f83601f840112610c28575f5ffd5b50813567ffffffffffffffff811115610c3f575f5ffd5b6020830191508360208260051b8501011115610c59575f5ffd5b9250929050565b5f5f5f5f60408587031215610c73575f5ffd5b843567ffffffffffffffff811115610c89575f5ffd5b610c9587828801610c18565b909550935050602085013567ffffffffffffffff811115610cb4575f5ffd5b610cc087828801610c18565b95989497509550505050565b602080825282518282018190525f918401906040840190835b81811015610d03578351835260209384019390920191600101610ce5565b509095945050505050565b6001600160a01b03811681146107cf575f5ffd5b5f60208284031215610d32575f5ffd5b8135610d3d81610d0e565b9392505050565b5f5f60408385031215610d55575f5ffd5b50508035926020909101359150565b5f5f60408385031215610d75575f5ffd5b8235610d8081610d0e565b946020939093013593505050565b80518015158114610d9d575f5ffd5b919050565b5f5f5f5f5f5f5f5f5f6101208a8c031215610dbb575f5ffd5b8951610dc681610d0e565b60208b0151909950610dd781610d0e565b60408b015160608c015191995097509550610df460808b01610d8e565b9450610e0260a08b01610d8e565b9350610e1060c08b01610d8e565b60e08b01519093509150610e276101008b01610d8e565b90509295985092959850929598565b634e487b7160e01b5f52603260045260245ffd5b634e487b7160e01b5f52601160045260245ffd5b80820180821115610e7157610e71610e4a565b92915050565b81810381811115610e7157610e71610e4a56fea264697066735822122052118626e29d2b6f94d7382024b33b2b4484592a294d83cac0e24211ba61d61364736f6c634300081c0033","linkReferences":{}},"methodIdentifiers":{"addGrant(uint256)":"0b1a8f26","batchClaim(uint256[],uint256[])":"18078359","claimFromGrant(uint256,uint256)":"e27c0541","consolidatedGrants(uint256)":"e8d498d3","getConsolidatedGrants()":"78f923c4","getVaultSummary()":"c55e4a0e","grantDetails(uint256)":"f7c83b49","grantStream()":"c7d4f9af","owner()":"8da5cb5b","renounceOwnership()":"715018a6","totalReceivedPerGrantor(address)":"9a2c6cb6","transferOwnership(address)":"f2fde38b","withdraw(address,uint256)":"f3fef3a3"},"id":0}