{"abi":[{"type":"constructor","inputs":[{"name":"_verifier","type":"address","internalType":"address"}],"stateMutability":"nonpayable"},{"type":"function","name":"isVerified","inputs":[{"name":"account","type":"address","internalType":"address"}],"outputs":[{"name":"","type":"bool","internalType":"bool"}],"stateMutability":"view"},{"type":"function","name":"owner","inputs":[],"outputs":[{"name":"","type":"address","internalType":"address"}],"stateMutability":"view"},{"type":"function","name":"proofHashes","inputs":[{"name":"","type":"address","internalType":"address"}],"outputs":[{"name":"","type":"bytes32","internalType":"bytes32"}],"stateMutability":"view"},{"type":"function","name":"renounceOwnership","inputs":[],"outputs":[],"stateMutability":"nonpayable"},{"type":"function","name":"revokeVerification","inputs":[{"name":"account","type":"address","internalType":"address"}],"outputs":[],"stateMutability":"nonpayable"},{"type":"function","name":"setVerifier","inputs":[{"name":"_newVerifier","type":"address","internalType":"address"}],"outputs":[],"stateMutability":"nonpayable"},{"type":"function","name":"transferOwnership","inputs":[{"name":"newOwner","type":"address","internalType":"address"}],"outputs":[],"stateMutability":"nonpayable"},{"type":"function","name":"verifier","inputs":[],"outputs":[{"name":"","type":"address","internalType":"address"}],"stateMutability":"view"},{"type":"function","name":"verifyAddress","inputs":[{"name":"account","type":"address","internalType":"address"},{"name":"proofHash","type":"bytes32","internalType":"bytes32"}],"outputs":[],"stateMutability":"nonpayable"},{"type":"event","name":"AddressVerified","inputs":[{"name":"account","type":"address","indexed":true,"internalType":"address"},{"name":"proofHash","type":"bytes32","indexed":true,"internalType":"bytes32"}],"anonymous":false},{"type":"event","name":"OwnershipTransferred","inputs":[{"name":"previousOwner","type":"address","indexed":true,"internalType":"address"},{"name":"newOwner","type":"address","indexed":true,"internalType":"address"}],"anonymous":false},{"type":"event","name":"VerificationRevoked","inputs":[{"name":"account","type":"address","indexed":true,"internalType":"address"}],"anonymous":false},{"type":"event","name":"VerifierUpdated","inputs":[{"name":"oldVerifier","type":"address","indexed":true,"internalType":"address"},{"name":"newVerifier","type":"address","indexed":true,"internalType":"address"}],"anonymous":false},{"type":"error","name":"OwnableInvalidOwner","inputs":[{"name":"owner","type":"address","internalType":"address"}]},{"type":"error","name":"OwnableUnauthorizedAccount","inputs":[{"name":"account","type":"address","internalType":"address"}]}],"bytecode":{"object":"0x608060405234801561000f575f5ffd5b5060405161074238038061074283398101604081905261002e91610128565b338061005457604051631e4fbdf760e01b81525f60048201526024015b60405180910390fd5b61005d816100d9565b506001600160a01b0381166100b45760405162461bcd60e51b815260206004820152601c60248201527f5a4b4b594356657269666965723a207a65726f20766572696669657200000000604482015260640161004b565b600180546001600160a01b0319166001600160a01b0392909216919091179055610155565b5f80546001600160a01b038381166001600160a01b0319831681178455604051919092169283917f8be0079c531659141344cd1fd0a4f28419497f9722a3daafe3b4186f6b6457e09190a35050565b5f60208284031215610138575f5ffd5b81516001600160a01b038116811461014e575f5ffd5b9392505050565b6105e0806101625f395ff3fe608060405234801561000f575f5ffd5b5060043610610090575f3560e01c80638da5cb5b116100635780638da5cb5b146100f4578063b4da66af14610104578063b9209e3314610131578063e998d2fa1461016b578063f2fde38b1461017e575f5ffd5b8063225846a9146100945780632b7ac3f3146100a95780635437988d146100d9578063715018a6146100ec575b5f5ffd5b6100a76100a236600461051d565b610191565b005b6001546100bc906001600160a01b031681565b6040516001600160a01b0390911681526020015b60405180910390f35b6100a76100e7366004610545565b6102ad565b6100a7610366565b5f546001600160a01b03166100bc565b610123610112366004610545565b60026020525f908152604090205481565b6040519081526020016100d0565b61015b61013f366004610545565b6001600160a01b03165f90815260026020526040902054151590565b60405190151581526020016100d0565b6100a7610179366004610545565b610379565b6100a761018c366004610545565b61044a565b6001546001600160a01b031633146101c45760405162461bcd60e51b81526004016101bb90610565565b60405180910390fd5b6001600160a01b03821661021a5760405162461bcd60e51b815260206004820152601b60248201527f5a4b4b594356657269666965723a207a65726f206163636f756e74000000000060448201526064016101bb565b806102675760405162461bcd60e51b815260206004820152601e60248201527f5a4b4b594356657269666965723a207a65726f2070726f6f662068617368000060448201526064016101bb565b6001600160a01b0382165f81815260026020526040808220849055518392917f3e7ec1f6e215acd693c89f8efba8f97389c7d7627507000df0c85e05b123484791a35050565b6102b5610487565b6001600160a01b03811661030b5760405162461bcd60e51b815260206004820152601c60248201527f5a4b4b594356657269666965723a207a65726f2076657269666965720000000060448201526064016101bb565b6001546040516001600160a01b038084169216907f0243549a92b2412f7a3caf7a2e56d65b8821b91345363faa5f57195384065fcc905f90a3600180546001600160a01b0319166001600160a01b0392909216919091179055565b61036e610487565b6103775f6104b3565b565b6001546001600160a01b031633146103a35760405162461bcd60e51b81526004016101bb90610565565b6001600160a01b0381165f908152600260205260409020546104075760405162461bcd60e51b815260206004820152601b60248201527f5a4b4b594356657269666965723a206e6f74207665726966696564000000000060448201526064016101bb565b6001600160a01b0381165f81815260026020526040808220829055517f75033e7957d35df53d884cf515f820f5f6969cae9cbabb88bce1e888dacc94569190a250565b610452610487565b6001600160a01b03811661047b57604051631e4fbdf760e01b81525f60048201526024016101bb565b610484816104b3565b50565b5f546001600160a01b031633146103775760405163118cdaa760e01b81523360048201526024016101bb565b5f80546001600160a01b038381166001600160a01b0319831681178455604051919092169283917f8be0079c531659141344cd1fd0a4f28419497f9722a3daafe3b4186f6b6457e09190a35050565b80356001600160a01b0381168114610518575f5ffd5b919050565b5f5f6040838503121561052e575f5ffd5b61053783610502565b946020939093013593505050565b5f60208284031215610555575f5ffd5b61055e82610502565b9392505050565b60208082526025908201527f5a4b4b594356657269666965723a2063616c6c6572206973206e6f742076657260408201526434b334b2b960d91b60608201526080019056fea2646970667358221220cd2db8f00d07c105f1ff9553bcd556b48e4d6c518cf88e7ac4c1d172fb66471d64736f6c634300081c0033","linkReferences":{}},"methodIdentifiers":{"isVerified(address)":"b9209e33","owner()":"8da5cb5b","proofHashes(address)":"b4da66af","renounceOwnership()":"715018a6","revokeVerification(address)":"e998d2fa","setVerifier(address)":"5437988d","transferOwnership(address)":"f2fde38b","verifier()":"2b7ac3f3","verifyAddress(address,bytes32)":"225846a9"},"id":3}