{"abi":[{"type":"constructor","inputs":[{"name":"_treasury","type":"address","internalType":"address"}],"stateMutability":"nonpayable"},{"type":"receive","stateMutability":"payable"},{"type":"function","name":"balance","inputs":[],"outputs":[{"name":"","type":"uint256","internalType":"uint256"}],"stateMutability":"view"},{"type":"function","name":"deposit","inputs":[],"outputs":[],"stateMutability":"payable"},{"type":"function","name":"owner","inputs":[],"outputs":[{"name":"","type":"address","internalType":"address"}],"stateMutability":"view"},{"type":"function","name":"renounceOwnership","inputs":[],"outputs":[],"stateMutability":"nonpayable"},{"type":"function","name":"setTreasury","inputs":[{"name":"_newTreasury","type":"address","internalType":"address"}],"outputs":[],"stateMutability":"nonpayable"},{"type":"function","name":"totalReceived","inputs":[],"outputs":[{"name":"","type":"uint256","internalType":"uint256"}],"stateMutability":"view"},{"type":"function","name":"transferOwnership","inputs":[{"name":"newOwner","type":"address","internalType":"address"}],"outputs":[],"stateMutability":"nonpayable"},{"type":"function","name":"treasury","inputs":[],"outputs":[{"name":"","type":"address","internalType":"address"}],"stateMutability":"view"},{"type":"function","name":"withdraw","inputs":[{"name":"amount","type":"uint256","internalType":"uint256"}],"outputs":[],"stateMutability":"nonpayable"},{"type":"event","name":"OwnershipTransferred","inputs":[{"name":"previousOwner","type":"address","indexed":true,"internalType":"address"},{"name":"newOwner","type":"address","indexed":true,"internalType":"address"}],"anonymous":false},{"type":"event","name":"TaxDeposited","inputs":[{"name":"from","type":"address","indexed":true,"internalType":"address"},{"name":"amount","type":"uint256","indexed":false,"internalType":"uint256"},{"name":"newTotal","type":"uint256","indexed":false,"internalType":"uint256"}],"anonymous":false},{"type":"event","name":"TreasuryUpdated","inputs":[{"name":"oldTreasury","type":"address","indexed":true,"internalType":"address"},{"name":"newTreasury","type":"address","indexed":true,"internalType":"address"}],"anonymous":false},{"type":"event","name":"TreasuryWithdrawal","inputs":[{"name":"treasury","type":"address","indexed":true,"internalType":"address"},{"name":"amount","type":"uint256","indexed":false,"internalType":"uint256"}],"anonymous":false},{"type":"error","name":"OwnableInvalidOwner","inputs":[{"name":"owner","type":"address","internalType":"address"}]},{"type":"error","name":"OwnableUnauthorizedAccount","inputs":[{"name":"account","type":"address","internalType":"address"}]},{"type":"error","name":"ReentrancyGuardReentrantCall","inputs":[]}],"bytecode":{"object":"0x608060405234801561000f575f5ffd5b5060405161083038038061083083398101604081905261002e91610136565b338061005457604051631e4fbdf760e01b81525f60048201526024015b60405180910390fd5b61005d816100e7565b50600180556001600160a01b0381166100c25760405162461bcd60e51b815260206004820152602160248201527f5375737461696e6162696c69747946756e643a207a65726f20747265617375726044820152607960f81b606482015260840161004b565b600280546001600160a01b0319166001600160a01b0392909216919091179055610163565b5f80546001600160a01b038381166001600160a01b0319831681178455604051919092169283917f8be0079c531659141344cd1fd0a4f28419497f9722a3daafe3b4186f6b6457e09190a35050565b5f60208284031215610146575f5ffd5b81516001600160a01b038116811461015c575f5ffd5b9392505050565b6106c0806101705f395ff3fe608060405260043610610087575f3560e01c8063a3c2c46211610057578063a3c2c46214610179578063b69ef8a81461019c578063d0e30db0146101ae578063f0f44260146101b6578063f2fde38b146101d5575f5ffd5b80632e1a7d4d146100ec57806361d027b31461010d578063715018a6146101495780638da5cb5b1461015d575f5ffd5b366100e8573460035f82825461009d9190610621565b909155505060035460405133917fed4842fbe4d213991be858c677c34ed27f119a1cb2a288de215304757eee2025916100de91348252602082015260400190565b60405180910390a2005b5f5ffd5b3480156100f7575f5ffd5b5061010b610106366004610646565b6101f4565b005b348015610118575f5ffd5b5060025461012c906001600160a01b031681565b6040516001600160a01b0390911681526020015b60405180910390f35b348015610154575f5ffd5b5061010b6103cb565b348015610168575f5ffd5b505f546001600160a01b031661012c565b348015610184575f5ffd5b5061018e60035481565b604051908152602001610140565b3480156101a7575f5ffd5b504761018e565b61010b6103de565b3480156101c1575f5ffd5b5061010b6101d036600461065d565b610489565b3480156101e0575f5ffd5b5061010b6101ef36600461065d565b610542565b6101fc61057c565b6002546001600160a01b0316331461025b5760405162461bcd60e51b815260206004820181905260248201527f5375737461696e6162696c69747946756e643a206e6f7420747265617375727960448201526064015b60405180910390fd5b5f8115610268578161026a565b475b9050478111156102cd5760405162461bcd60e51b815260206004820152602860248201527f5375737461696e6162696c69747946756e643a20696e73756666696369656e746044820152672062616c616e636560c01b6064820152608401610252565b6002546040515f916001600160a01b03169083908381818185875af1925050503d805f8114610317576040519150601f19603f3d011682016040523d82523d5f602084013e61031c565b606091505b505090508061037b5760405162461bcd60e51b815260206004820152602560248201527f5375737461696e6162696c69747946756e643a207769746864726177616c2066604482015264185a5b195960da1b6064820152608401610252565b6002546040518381526001600160a01b03909116907f233c84dc0c19fbf51f9fa92214ffd8a59f512e0098bff5827455d02e401221c09060200160405180910390a250506103c860018055565b50565b6103d36105a6565b6103dc5f6105d2565b565b5f341161042d5760405162461bcd60e51b815260206004820181905260248201527f5375737461696e6162696c69747946756e643a207a65726f206465706f7369746044820152606401610252565b3460035f82825461043e9190610621565b909155505060035460405133917fed4842fbe4d213991be858c677c34ed27f119a1cb2a288de215304757eee20259161047f91348252602082015260400190565b60405180910390a2565b6104916105a6565b6001600160a01b0381166104e75760405162461bcd60e51b815260206004820181905260248201527f5375737461696e6162696c69747946756e643a207a65726f20616464726573736044820152606401610252565b6002546040516001600160a01b038084169216907f4ab5be82436d353e61ca18726e984e561f5c1cc7c6d38b29d2553c790434705a905f90a3600280546001600160a01b0319166001600160a01b0392909216919091179055565b61054a6105a6565b6001600160a01b03811661057357604051631e4fbdf760e01b81525f6004820152602401610252565b6103c8816105d2565b60026001540361059f57604051633ee5aeb560e01b815260040160405180910390fd5b6002600155565b5f546001600160a01b031633146103dc5760405163118cdaa760e01b8152336004820152602401610252565b5f80546001600160a01b038381166001600160a01b0319831681178455604051919092169283917f8be0079c531659141344cd1fd0a4f28419497f9722a3daafe3b4186f6b6457e09190a35050565b8082018082111561064057634e487b7160e01b5f52601160045260245ffd5b92915050565b5f60208284031215610656575f5ffd5b5035919050565b5f6020828403121561066d575f5ffd5b81356001600160a01b0381168114610683575f5ffd5b939250505056fea264697066735822122007ec8aa97569a68c16873679872f3f3a6e2469c925f9fa616f8d1a1b61d321cb64736f6c634300081c0033","linkReferences":{}},"methodIdentifiers":{"balance()":"b69ef8a8","deposit()":"d0e30db0","owner()":"8da5cb5b","renounceOwnership()":"715018a6","setTreasury(address)":"f0f44260","totalReceived()":"a3c2c462","transferOwnership(address)":"f2fde38b","treasury()":"61d027b3","withdraw(uint256)":"2e1a7d4d"},"id":2}