{"abi":[{"type":"constructor","inputs":[{"name":"_sustainabilityFund","type":"address","internalType":"address"}],"stateMutability":"nonpayable"},{"type":"function","name":"BPS_DENOMINATOR","inputs":[],"outputs":[{"name":"","type":"uint256","internalType":"uint256"}],"stateMutability":"view"},{"type":"function","name":"SUSTAINABILITY_TAX_BPS","inputs":[],"outputs":[{"name":"","type":"uint256","internalType":"uint256"}],"stateMutability":"view"},{"type":"function","name":"VOLUME_THRESHOLD","inputs":[],"outputs":[{"name":"","type":"uint256","internalType":"uint256"}],"stateMutability":"view"},{"type":"function","name":"addCommitment","inputs":[{"name":"commitment","type":"bytes32","internalType":"bytes32"}],"outputs":[],"stateMutability":"nonpayable"},{"type":"function","name":"approveFinalRelease","inputs":[{"name":"grantId","type":"uint256","internalType":"uint256"}],"outputs":[],"stateMutability":"nonpayable"},{"type":"function","name":"claim","inputs":[{"name":"grantId","type":"uint256","internalType":"uint256"},{"name":"amount","type":"uint256","internalType":"uint256"}],"outputs":[],"stateMutability":"nonpayable"},{"type":"function","name":"claimWithZKProof","inputs":[{"name":"grantId","type":"uint256","internalType":"uint256"},{"name":"amount","type":"uint256","internalType":"uint256"},{"name":"nullifier","type":"bytes32","internalType":"bytes32"},{"name":"proof","type":"bytes","internalType":"bytes"}],"outputs":[],"stateMutability":"nonpayable"},{"type":"function","name":"closeGrant","inputs":[{"name":"grantId","type":"uint256","internalType":"uint256"}],"outputs":[],"stateMutability":"nonpayable"},{"type":"function","name":"commitmentCount","inputs":[],"outputs":[{"name":"","type":"uint256","internalType":"uint256"}],"stateMutability":"view"},{"type":"function","name":"commitments","inputs":[{"name":"","type":"bytes32","internalType":"bytes32"}],"outputs":[{"name":"","type":"bool","internalType":"bool"}],"stateMutability":"view"},{"type":"function","name":"createGrant","inputs":[{"name":"recipient","type":"address","internalType":"address"},{"name":"_endDate","type":"uint256","internalType":"uint256"},{"name":"_finalReleaseRequired","type":"bool","internalType":"bool"}],"outputs":[{"name":"","type":"uint256","internalType":"uint256"}],"stateMutability":"payable"},{"type":"function","name":"createGrant","inputs":[{"name":"recipient","type":"address","internalType":"address"}],"outputs":[{"name":"","type":"uint256","internalType":"uint256"}],"stateMutability":"payable"},{"type":"function","name":"getGrantDetails","inputs":[{"name":"grantId","type":"uint256","internalType":"uint256"}],"outputs":[{"name":"","type":"tuple","internalType":"struct GrantStream.Grant","components":[{"name":"funder","type":"address","internalType":"address"},{"name":"recipient","type":"address","internalType":"address"},{"name":"balance","type":"uint256","internalType":"uint256"},{"name":"totalVolume","type":"uint256","internalType":"uint256"},{"name":"active","type":"bool","internalType":"bool"},{"name":"finalReleaseRequired","type":"bool","internalType":"bool"},{"name":"finalReleaseApproved","type":"bool","internalType":"bool"},{"name":"endDate","type":"uint256","internalType":"uint256"},{"name":"exists","type":"bool","internalType":"bool"}]}],"stateMutability":"view"},{"type":"function","name":"grants","inputs":[{"name":"","type":"uint256","internalType":"uint256"}],"outputs":[{"name":"funder","type":"address","internalType":"address"},{"name":"recipient","type":"address","internalType":"address"},{"name":"balance","type":"uint256","internalType":"uint256"},{"name":"totalVolume","type":"uint256","internalType":"uint256"},{"name":"active","type":"bool","internalType":"bool"},{"name":"finalReleaseRequired","type":"bool","internalType":"bool"},{"name":"finalReleaseApproved","type":"bool","internalType":"bool"},{"name":"endDate","type":"uint256","internalType":"uint256"},{"name":"exists","type":"bool","internalType":"bool"}],"stateMutability":"view"},{"type":"function","name":"isCommitmentExists","inputs":[{"name":"commitment","type":"bytes32","internalType":"bytes32"}],"outputs":[{"name":"","type":"bool","internalType":"bool"}],"stateMutability":"view"},{"type":"function","name":"isNullifierUsed","inputs":[{"name":"nullifier","type":"bytes32","internalType":"bytes32"}],"outputs":[{"name":"","type":"bool","internalType":"bool"}],"stateMutability":"view"},{"type":"function","name":"kycRequired","inputs":[],"outputs":[{"name":"","type":"bool","internalType":"bool"}],"stateMutability":"view"},{"type":"function","name":"merkleRoot","inputs":[],"outputs":[{"name":"","type":"bytes32","internalType":"bytes32"}],"stateMutability":"view"},{"type":"function","name":"nextGrantId","inputs":[],"outputs":[{"name":"","type":"uint256","internalType":"uint256"}],"stateMutability":"view"},{"type":"function","name":"nullifiers","inputs":[{"name":"","type":"bytes32","internalType":"bytes32"}],"outputs":[{"name":"","type":"bool","internalType":"bool"}],"stateMutability":"view"},{"type":"function","name":"owner","inputs":[],"outputs":[{"name":"","type":"address","internalType":"address"}],"stateMutability":"view"},{"type":"function","name":"renounceOwnership","inputs":[],"outputs":[],"stateMutability":"nonpayable"},{"type":"function","name":"requiresFinalApproval","inputs":[{"name":"grantId","type":"uint256","internalType":"uint256"}],"outputs":[{"name":"","type":"bool","internalType":"bool"}],"stateMutability":"view"},{"type":"function","name":"setKYCRequired","inputs":[{"name":"_required","type":"bool","internalType":"bool"}],"outputs":[],"stateMutability":"nonpayable"},{"type":"function","name":"setZKProofEnabled","inputs":[{"name":"_enabled","type":"bool","internalType":"bool"}],"outputs":[],"stateMutability":"nonpayable"},{"type":"function","name":"setZKVerifier","inputs":[{"name":"_zkVerifier","type":"address","internalType":"address"}],"outputs":[],"stateMutability":"nonpayable"},{"type":"function","name":"sustainabilityFund","inputs":[],"outputs":[{"name":"","type":"address","internalType":"contract SustainabilityFund"}],"stateMutability":"view"},{"type":"function","name":"topUp","inputs":[{"name":"grantId","type":"uint256","internalType":"uint256"}],"outputs":[],"stateMutability":"payable"},{"type":"function","name":"transferOwnership","inputs":[{"name":"newOwner","type":"address","internalType":"address"}],"outputs":[],"stateMutability":"nonpayable"},{"type":"function","name":"updateMerkleRoot","inputs":[{"name":"_newMerkleRoot","type":"bytes32","internalType":"bytes32"}],"outputs":[],"stateMutability":"nonpayable"},{"type":"function","name":"updateRecipient","inputs":[{"name":"grantId","type":"uint256","internalType":"uint256"},{"name":"newRecipient","type":"address","internalType":"address"}],"outputs":[],"stateMutability":"nonpayable"},{"type":"function","name":"useNullifier","inputs":[{"name":"nullifier","type":"bytes32","internalType":"bytes32"}],"outputs":[],"stateMutability":"nonpayable"},{"type":"function","name":"zkProofEnabled","inputs":[],"outputs":[{"name":"","type":"bool","internalType":"bool"}],"stateMutability":"view"},{"type":"function","name":"zkVerifier","inputs":[],"outputs":[{"name":"","type":"address","internalType":"contract ZKKYCVerifier"}],"stateMutability":"view"},{"type":"event","name":"CommitmentAdded","inputs":[{"name":"commitment","type":"bytes32","indexed":true,"internalType":"bytes32"}],"anonymous":false},{"type":"event","name":"FinalReleaseApproved","inputs":[{"name":"grantId","type":"uint256","indexed":true,"internalType":"uint256"},{"name":"approver","type":"address","indexed":true,"internalType":"address"},{"name":"timestamp","type":"uint256","indexed":false,"internalType":"uint256"}],"anonymous":false},{"type":"event","name":"FinalReleaseClaimed","inputs":[{"name":"grantId","type":"uint256","indexed":true,"internalType":"uint256"},{"name":"recipient","type":"address","indexed":true,"internalType":"address"},{"name":"amount","type":"uint256","indexed":false,"internalType":"uint256"}],"anonymous":false},{"type":"event","name":"FinalReleaseFlagSet","inputs":[{"name":"grantId","type":"uint256","indexed":true,"internalType":"uint256"},{"name":"required","type":"bool","indexed":false,"internalType":"bool"}],"anonymous":false},{"type":"event","name":"FundsClaimed","inputs":[{"name":"grantId","type":"uint256","indexed":true,"internalType":"uint256"},{"name":"recipient","type":"address","indexed":true,"internalType":"address"},{"name":"netAmount","type":"uint256","indexed":false,"internalType":"uint256"},{"name":"sustainabilityTax","type":"uint256","indexed":false,"internalType":"uint256"}],"anonymous":false},{"type":"event","name":"GrantClosed","inputs":[{"name":"grantId","type":"uint256","indexed":true,"internalType":"uint256"},{"name":"refunded","type":"uint256","indexed":false,"internalType":"uint256"}],"anonymous":false},{"type":"event","name":"GrantCreated","inputs":[{"name":"grantId","type":"uint256","indexed":true,"internalType":"uint256"},{"name":"funder","type":"address","indexed":true,"internalType":"address"},{"name":"recipient","type":"address","indexed":true,"internalType":"address"},{"name":"amount","type":"uint256","indexed":false,"internalType":"uint256"}],"anonymous":false},{"type":"event","name":"GrantRecipientUpdated","inputs":[{"name":"grantId","type":"uint256","indexed":true,"internalType":"uint256"},{"name":"oldRecipient","type":"address","indexed":true,"internalType":"address"},{"name":"newRecipient","type":"address","indexed":true,"internalType":"address"}],"anonymous":false},{"type":"event","name":"GrantToppedUp","inputs":[{"name":"grantId","type":"uint256","indexed":true,"internalType":"uint256"},{"name":"amount","type":"uint256","indexed":false,"internalType":"uint256"}],"anonymous":false},{"type":"event","name":"KYCRequirementChanged","inputs":[{"name":"required","type":"bool","indexed":false,"internalType":"bool"}],"anonymous":false},{"type":"event","name":"MerkleRootUpdated","inputs":[{"name":"merkleRoot","type":"bytes32","indexed":true,"internalType":"bytes32"}],"anonymous":false},{"type":"event","name":"NullifierUsed","inputs":[{"name":"nullifier","type":"bytes32","indexed":true,"internalType":"bytes32"}],"anonymous":false},{"type":"event","name":"OwnershipTransferred","inputs":[{"name":"previousOwner","type":"address","indexed":true,"internalType":"address"},{"name":"newOwner","type":"address","indexed":true,"internalType":"address"}],"anonymous":false},{"type":"event","name":"ZKProofEnabledToggled","inputs":[{"name":"enabled","type":"bool","indexed":false,"internalType":"bool"}],"anonymous":false},{"type":"event","name":"ZKVerifierSet","inputs":[{"name":"zkVerifier","type":"address","indexed":true,"internalType":"address"}],"anonymous":false},{"type":"error","name":"OwnableInvalidOwner","inputs":[{"name":"owner","type":"address","internalType":"address"}]},{"type":"error","name":"OwnableUnauthorizedAccount","inputs":[{"name":"account","type":"address","internalType":"address"}]},{"type":"error","name":"ReentrancyGuardReentrantCall","inputs":[]}],"bytecode":{"object":"0x60a060405234801561000f575f5ffd5b506040516125de3803806125de83398101604081905261002e91610118565b338061005457604051631e4fbdf760e01b81525f60048201526024015b60405180910390fd5b61005d816100c9565b50600180556001600160a01b0381166100b85760405162461bcd60e51b815260206004820152601960248201527f4772616e7453747265616d3a207a65726f206164647265737300000000000000604482015260640161004b565b6001600160a01b0316608052610145565b5f80546001600160a01b038381166001600160a01b0319831681178455604051919092169283917f8be0079c531659141344cd1fd0a4f28419497f9722a3daafe3b4186f6b6457e09190a35050565b5f60208284031215610128575f5ffd5b81516001600160a01b038116811461013e575f5ffd5b9392505050565b60805161247361016b5f395f81816104c201528181610cba015261162c01526124735ff3fe6080604052600436106101f1575f3560e01c80638da5cb5b11610108578063c44956d11161009d578063da5132491161006d578063da5132491461065e578063e1a4521814610671578063e86131fa14610687578063f1b591d6146106a6578063f2fde38b146106d2575f5ffd5b8063c44956d1146105ec578063c509034614610601578063d6df096d14610620578063d9591eec1461063f575f5ffd5b8063b3d50e37116100d8578063b3d50e3714610579578063b969909114610598578063bb8b3ea9146105b8578063c3490263146105cd575f5ffd5b80638da5cb5b146104fc5780639f7ad1d114610518578063a043323114610537578063a2fa49091461054b575f5ffd5b806350017f3e11610189578063715018a611610159578063715018a61461043157806376d5342e1461044557806382fe472314610464578063839df9451461048357806389444a05146104b1575f5ffd5b806350017f3e146103c9578063541f5b9b146103dc57806355e877e1146103fb5780636faf454d14610414575f5ffd5b80632eb4a7ab116101c45780632eb4a7ab1461035557806330d01c151461037857806332e54c791461038b5780634783f0ef146103aa575f5ffd5b80630c0debea146101f55780631a55b6b2146102c857806322dc7b4c146102e95780632997e86b14610327575b5f5ffd5b348015610200575f5ffd5b5061026e61020f3660046120ac565b60096020525f908152604090208054600182015460028301546003840154600485015460058601546006909601546001600160a01b039586169695909416949293919260ff808316936101008404821693620100009004821692911689565b604080516001600160a01b039a8b1681529990981660208a01529688019590955260608701939093529015156080860152151560a0850152151560c084015260e08301521515610100820152610120015b60405180910390f35b3480156102d3575f5ffd5b506102e76102e23660046120d0565b6106f1565b005b3480156102f4575f5ffd5b506103176103033660046120ac565b5f9081526003602052604090205460ff1690565b60405190151581526020016102bf565b348015610332575f5ffd5b506103176103413660046120ac565b60036020525f908152604090205460ff1681565b348015610360575f5ffd5b5061036a60065481565b6040519081526020016102bf565b61036a610386366004612101565b610741565b348015610396575f5ffd5b506102e76103a53660046120ac565b610768565b3480156103b5575f5ffd5b506102e76103c43660046120ac565b61089f565b6102e76103d73660046120ac565b610936565b3480156103e7575f5ffd5b506102e76103f6366004612152565b610a60565b348015610406575f5ffd5b506007546103179060ff1681565b34801561041f575f5ffd5b5061036a69152d02c7e14af680000081565b34801561043c575f5ffd5b506102e7610e2a565b348015610450575f5ffd5b5061031761045f3660046120ac565b610e3d565b34801561046f575f5ffd5b506102e761047e3660046120ac565b610e90565b34801561048e575f5ffd5b5061031761049d3660046120ac565b60046020525f908152604090205460ff1681565b3480156104bc575f5ffd5b506104e47f000000000000000000000000000000000000000000000000000000000000000081565b6040516001600160a01b0390911681526020016102bf565b348015610507575f5ffd5b505f546001600160a01b03166104e4565b348015610523575f5ffd5b506102e76105323660046120ac565b6110d4565b348015610542575f5ffd5b5061036a606481565b348015610556575f5ffd5b506103176105653660046120ac565b5f9081526004602052604090205460ff1690565b348015610584575f5ffd5b506102e7610593366004612221565b611203565b3480156105a3575f5ffd5b5060025461031790600160a01b900460ff1681565b3480156105c3575f5ffd5b5061036a60085481565b3480156105d8575f5ffd5b506102e76105e736600461224b565b611365565b3480156105f7575f5ffd5b5061036a60055481565b34801561060c575f5ffd5b506102e761061b36600461226b565b6117ff565b34801561062b575f5ffd5b506002546104e4906001600160a01b031681565b34801561064a575f5ffd5b506102e76106593660046120ac565b611850565b61036a61066c36600461226b565b6119de565b34801561067c575f5ffd5b5061036a620f424081565b348015610692575f5ffd5b506102e76106a13660046120d0565b611a03565b3480156106b1575f5ffd5b506106c56106c03660046120ac565b611ab6565b6040516102bf9190612284565b3480156106dd575f5ffd5b506102e76106ec36600461226b565b611c10565b6106f9611c4a565b6007805460ff19168215159081179091556040519081527fb55ae299acc0f2af47de4dc487f04fa25f26ec6a1c1de2cf57292d6a2ce3a93b906020015b60405180910390a150565b5f61074a611c76565b61075684348585611ca0565b905061076160018055565b9392505050565b610770611c76565b806107d05760405162461bcd60e51b815260206004820152602560248201527f4772616e7453747265616d3a204e756c6c69666965722063616e6e6f74206265604482015264207a65726f60d81b60648201526084015b60405180910390fd5b5f8181526003602052604090205460ff16156108545760405162461bcd60e51b815260206004820152603a60248201527f4772616e7453747265616d3a204e756c6c696669657220616c7265616479207560448201527f7365642028646f75626c652d7370656e6420617474656d70742900000000000060648201526084016107c7565b5f81815260036020526040808220805460ff191660011790555182917f4aac17bcf1974f8ba294b28aaf75fe627cdcc9a03ac55bda3bfe158ab067383c91a261089c60018055565b50565b6108a7611c4a565b806109045760405162461bcd60e51b815260206004820152602760248201527f4772616e7453747265616d3a204d65726b6c6520726f6f742063616e6e6f74206044820152666265207a65726f60c81b60648201526084016107c7565b600681905560405181907f90004c04698bc3322499a575ed3752dd4abf33e0a7294c06a787a0fe01bea941905f90a250565b61093e611c76565b5f818152600960205260409020600481015460ff1661096f5760405162461bcd60e51b81526004016107c79061231c565b80546001600160a01b031633146109c25760405162461bcd60e51b815260206004820152601760248201527623b930b73a29ba3932b0b69d103737ba10333ab73232b960491b60448201526064016107c7565b5f3411610a095760405162461bcd60e51b81526020600482015260156024820152744772616e7453747265616d3a206e6f2066756e647360581b60448201526064016107c7565b34816002015f828254610a1c9190612367565b909155505060405134815282907f5b38d6c0d88809dd3eb86bf660467262cccc138f9b924ff5afabc0930aed66349060200160405180910390a25061089c60018055565b610a68611c76565b60075460ff16610acb5760405162461bcd60e51b815260206004820152602860248201527f4772616e7453747265616d3a205a4b2d70726f6f6620636c61696d73206e6f7460448201526708195b98589b195960c21b60648201526084016107c7565b5f8281526003602052604090205460ff1615610b355760405162461bcd60e51b815260206004820152602360248201527f4772616e7453747265616d3a204e756c6c696669657220616c726561647920756044820152621cd95960ea1b60648201526084016107c7565b5f848152600960205260409020600481015460ff16610b665760405162461bcd60e51b81526004016107c79061231c565b60018101546001600160a01b03163314610bc25760405162461bcd60e51b815260206004820152601a60248201527f4772616e7453747265616d3a206e6f7420726563697069656e7400000000000060448201526064016107c7565b5f84118015610bd5575080600201548411155b610c215760405162461bcd60e51b815260206004820152601b60248201527f4772616e7453747265616d3a20696e76616c696420616d6f756e74000000000060448201526064016107c7565b5f83815260036020526040808220805460ff191660011790555184917f4aac17bcf1974f8ba294b28aaf75fe627cdcc9a03ac55bda3bfe158ab067383c91a283816002015f828254610c73919061237a565b9250508190555083816003015f828254610c8d9190612367565b925050819055505f610ca3826003015486611fe3565b90505f610cb0828761237a565b90508115610d29577f00000000000000000000000000000000000000000000000000000000000000006001600160a01b031663d0e30db0836040518263ffffffff1660e01b81526004015f604051808303818588803b158015610d11575f5ffd5b505af1158015610d23573d5f5f3e3d5ffd5b50505050505b60018301546040515f916001600160a01b03169083908381818185875af1925050503d805f8114610d75576040519150601f19603f3d011682016040523d82523d5f602084013e610d7a565b606091505b5050905080610dcb5760405162461bcd60e51b815260206004820152601c60248201527f4772616e7453747265616d3a207472616e73666572206661696c65640000000060448201526064016107c7565b600184015460408051848152602081018690526001600160a01b03909216918a917ffa45b377144b58daa8abd179ea0781ee34ff3ab46955375786d6a962445707f2910160405180910390a350505050610e2460018055565b50505050565b610e32611c4a565b610e3b5f61205d565b565b5f8181526009602052604081206004810154610100900460ff168015610e6e5750600481015462010000900460ff16155b8015610e7d57505f8160050154115b8015610761575060050154421192915050565b610e98611c76565b5f8181526009602052604090206004810154610100900460ff16610f1d5760405162461bcd60e51b815260206004820152603660248201527f4772616e7453747265616d3a2046696e616c2072656c65617365206e6f742072604482015275195c5d5a5c995908199bdc881d1a1a5cc819dc985b9d60521b60648201526084016107c7565b600481015462010000900460ff1615610f8c5760405162461bcd60e51b815260206004820152602b60248201527f4772616e7453747265616d3a2046696e616c2072656c6561736520616c72656160448201526a191e48185c1c1c9bdd995960aa1b60648201526084016107c7565b5f8160050154118015610fa25750806005015442115b610ffa5760405162461bcd60e51b8152602060048201526024808201527f4772616e7453747265616d3a204772616e7420686173206e6f7420656e646564604482015263081e595d60e21b60648201526084016107c7565b5f546001600160a01b031633146110795760405162461bcd60e51b815260206004820152603c60248201527f4772616e7453747265616d3a204f6e6c79206f776e65722f676f7665726e616e60448201527f63652063616e20617070726f76652066696e616c2072656c656173650000000060648201526084016107c7565b60048101805462ff0000191662010000179055604051339083907fc10fb9eba35025d1b32885182a89bf4a3ef2379ab8a9c699c1a88d44bded1bea906110c29042815260200190565b60405180910390a35061089c60018055565b6110dc611c76565b806111385760405162461bcd60e51b815260206004820152602660248201527f4772616e7453747265616d3a20436f6d6d69746d656e742063616e6e6f74206260448201526565207a65726f60d01b60648201526084016107c7565b5f8181526004602052604090205460ff16156111a55760405162461bcd60e51b815260206004820152602660248201527f4772616e7453747265616d3a20436f6d6d69746d656e7420616c72656164792060448201526565786973747360d01b60648201526084016107c7565b5f818152600460205260408120805460ff1916600117905560058054916111cb8361238d565b909155505060405181907f0d1db5120c8b03afe943ddedc46e44af2a9b5f1dfe728e572a85559bba88a5fb905f90a261089c60018055565b61120b611c76565b5f828152600960205260409020600481015460ff1661123c5760405162461bcd60e51b81526004016107c79061231c565b60018101546001600160a01b031633146112a35760405162461bcd60e51b815260206004820152602260248201527f4772616e7453747265616d3a206e6f742063757272656e7420726563697069656044820152611b9d60f21b60648201526084016107c7565b6001600160a01b0382166113055760405162461bcd60e51b815260206004820152602360248201527f4772616e7453747265616d3a207a65726f20726563697069656e74206164647260448201526265737360e81b60648201526084016107c7565b6001810180546001600160a01b038481166001600160a01b03198316811790935560405191169190829086907f6d8dec572ef423b18c19cae45bedc2568a25530938ed9a74da6808d1c635aef2905f90a4505061136160018055565b5050565b61136d611c76565b5f828152600960205260409020600481015460ff1661139e5760405162461bcd60e51b81526004016107c79061231c565b60018101546001600160a01b031633146113fa5760405162461bcd60e51b815260206004820152601a60248201527f4772616e7453747265616d3a206e6f7420726563697069656e7400000000000060448201526064016107c7565b5f8211801561140d575080600201548211155b6114595760405162461bcd60e51b815260206004820152601b60248201527f4772616e7453747265616d3a20696e76616c696420616d6f756e74000000000060448201526064016107c7565b600254600160a01b900460ff16156114f15760025460405163b9209e3360e01b81523360048201526001600160a01b039091169063b9209e3390602401602060405180830381865afa1580156114b1573d5f5f3e3d5ffd5b505050506040513d601f19601f820116820180604052508101906114d591906123a5565b6114f15760405162461bcd60e51b81526004016107c7906123c0565b600281015460038201545f90600a9061150b908490612367565b6115159190612407565b6004840154909150610100900460ff16801561153457505f8360050154115b80156115435750826005015442115b801561154f5750808411155b80156115665750600483015462010000900460ff16155b156115d25760405162461bcd60e51b815260206004820152603660248201527f4772616e7453747265616d3a204c6173742031302520726571756972657320636044820152756f6d6d756e69747920617070726f76616c20766f746560501b60648201526084016107c7565b83836002015f8282546115e5919061237a565b9250508190555083836003015f8282546115ff9190612367565b925050819055505f611615846003015486611fe3565b90505f611622828761237a565b9050811561169b577f00000000000000000000000000000000000000000000000000000000000000006001600160a01b031663d0e30db0836040518263ffffffff1660e01b81526004015f604051808303818588803b158015611683575f5ffd5b505af1158015611695573d5f5f3e3d5ffd5b50505050505b60018501546040515f916001600160a01b03169083908381818185875af1925050503d805f81146116e7576040519150601f19603f3d011682016040523d82523d5f602084013e6116ec565b606091505b505090508061173d5760405162461bcd60e51b815260206004820152601c60248201527f4772616e7453747265616d3a207472616e73666572206661696c65640000000060448201526064016107c7565b6004860154610100900460ff16801561175857506002860154155b156117a45760018601546040518881526001600160a01b039091169089907f5b209f6a1f82f6e0ba9ac87b16fa87c3fc1c3db1897a9c88edca024757a3c3b39060200160405180910390a35b600186015460408051848152602081018690526001600160a01b03909216918a917ffa45b377144b58daa8abd179ea0781ee34ff3ab46955375786d6a962445707f2910160405180910390a350505050505061136160018055565b611807611c4a565b600280546001600160a01b0319166001600160a01b0383169081179091556040517f7a46bbb11da1ff20d21103803fc49b5e3fb9abb22e7d89ade9e096ee4a96dbe1905f90a250565b611858611c76565b5f818152600960205260409020600481015460ff166118895760405162461bcd60e51b81526004016107c79061231c565b80546001600160a01b031633146118dc5760405162461bcd60e51b815260206004820152601760248201527623b930b73a29ba3932b0b69d103737ba10333ab73232b960491b60448201526064016107c7565b60048101805460ff191690556002810180545f90915580156119995781546040515f916001600160a01b03169083908381818185875af1925050503d805f8114611941576040519150601f19603f3d011682016040523d82523d5f602084013e611946565b606091505b50509050806119975760405162461bcd60e51b815260206004820152601a60248201527f4772616e7453747265616d3a20726566756e64206661696c656400000000000060448201526064016107c7565b505b827f9f7ca34053008a96979ee64a1d92504de91a73dac39d00c82d5575df179051bf826040516119cb91815260200190565b60405180910390a2505061089c60018055565b5f6119e7611c76565b6119f382345f5f611ca0565b90506119fe60018055565b919050565b611a0b611c4a565b8015611a69576002546001600160a01b0316611a695760405162461bcd60e51b815260206004820152601f60248201527f4772616e7453747265616d3a207a6b5665726966696572206e6f74207365740060448201526064016107c7565b60028054821515600160a01b0260ff60a01b199091161790556040517f409f2525ed22a884cfcdab48ec9a11940ed320013c22f86652d3f91a160d12039061073690831515815260200190565b60408051610120810182525f80825260208201819052918101829052606081018290526080810182905260a0810182905260c0810182905260e081018290526101008101919091525f8281526009602052604090206006015460ff1680611b1e575060085482105b611b745760405162461bcd60e51b815260206004820152602160248201527f4772616e7453747265616d3a204772616e7420646f6573206e6f7420657869736044820152601d60fa1b60648201526084016107c7565b505f9081526009602090815260409182902082516101208101845281546001600160a01b0390811682526001830154169281019290925260028101549282019290925260038201546060820152600482015460ff808216151560808401526101008083048216151560a0850152620100009092048116151560c0840152600584015460e084015260069093015490921615159181019190915290565b611c18611c4a565b6001600160a01b038116611c4157604051631e4fbdf760e01b81525f60048201526024016107c7565b61089c8161205d565b5f546001600160a01b03163314610e3b5760405163118cdaa760e01b81523360048201526024016107c7565b600260015403611c9957604051633ee5aeb560e01b815260040160405180910390fd5b6002600155565b5f5f8411611ce85760405162461bcd60e51b81526020600482015260156024820152744772616e7453747265616d3a206e6f2066756e647360581b60448201526064016107c7565b6001600160a01b038516611d3e5760405162461bcd60e51b815260206004820152601b60248201527f4772616e7453747265616d3a207a65726f20726563697069656e74000000000060448201526064016107c7565b600254600160a01b900460ff1615611dd85760025460405163b9209e3360e01b81526001600160a01b0387811660048301529091169063b9209e3390602401602060405180830381865afa158015611d98573d5f5f3e3d5ffd5b505050506040513d601f19601f82011682018060405250810190611dbc91906123a5565b611dd85760405162461bcd60e51b81526004016107c7906123c0565b60088054905f611de78361238d565b919050559050604051806101200160405280336001600160a01b03168152602001866001600160a01b031681526020018581526020015f815260200160011515815260200183151581526020015f151581526020018481526020016001151581525060095f8381526020019081526020015f205f820151815f015f6101000a8154816001600160a01b0302191690836001600160a01b031602179055506020820151816001015f6101000a8154816001600160a01b0302191690836001600160a01b0316021790555060408201518160020155606082015181600301556080820151816004015f6101000a81548160ff02191690831515021790555060a08201518160040160016101000a81548160ff02191690831515021790555060c08201518160040160026101000a81548160ff02191690831515021790555060e08201518160050155610100820151816006015f6101000a81548160ff021916908315150217905550905050846001600160a01b0316336001600160a01b0316827f02999027b68e27b5d4e22a8db23b248fab59cdccb5877a59193afe5eab994e8a87604051611f9691815260200190565b60405180910390a48115611fdb576040516001815281907f85ed805764f10868ea7ebb0421c80e12a65f9b6dbdbfcce0ceb281c8df4925e09060200160405180910390a25b949350505050565b5f69152d02c7e14af68000008311611ffc57505f612057565b5f612007838561237a565b90505f69152d02c7e14af68000008210612022575082612039565b61203669152d02c7e14af68000008661237a565b90505b620f4240612048606483612426565b6120529190612407565b925050505b92915050565b5f80546001600160a01b038381166001600160a01b0319831681178455604051919092169283917f8be0079c531659141344cd1fd0a4f28419497f9722a3daafe3b4186f6b6457e09190a35050565b5f602082840312156120bc575f5ffd5b5035919050565b801515811461089c575f5ffd5b5f602082840312156120e0575f5ffd5b8135610761816120c3565b80356001600160a01b03811681146119fe575f5ffd5b5f5f5f60608486031215612113575f5ffd5b61211c846120eb565b9250602084013591506040840135612133816120c3565b809150509250925092565b634e487b7160e01b5f52604160045260245ffd5b5f5f5f5f60808587031215612165575f5ffd5b843593506020850135925060408501359150606085013567ffffffffffffffff811115612190575f5ffd5b8501601f810187136121a0575f5ffd5b803567ffffffffffffffff8111156121ba576121ba61213e565b604051601f8201601f19908116603f0116810167ffffffffffffffff811182821017156121e9576121e961213e565b604052818152828201602001891015612200575f5ffd5b816020840160208301375f6020838301015280935050505092959194509250565b5f5f60408385031215612232575f5ffd5b82359150612242602084016120eb565b90509250929050565b5f5f6040838503121561225c575f5ffd5b50508035926020909101359150565b5f6020828403121561227b575f5ffd5b610761826120eb565b81516001600160a01b0390811682526020808401519091169082015260408083015190820152606080830151908201526080808301516101208301916122cd9084018215159052565b5060a08301516122e160a084018215159052565b5060c08301516122f560c084018215159052565b5060e083015160e083015261010083015161231561010084018215159052565b5092915050565b6020808252601b908201527f4772616e7453747265616d3a20696e616374697665206772616e740000000000604082015260600190565b634e487b7160e01b5f52601160045260245ffd5b8082018082111561205757612057612353565b8181038181111561205757612057612353565b5f6001820161239e5761239e612353565b5060010190565b5f602082840312156123b5575f5ffd5b8151610761816120c3565b60208082526027908201527f4772616e7453747265616d3a20726563697069656e74206e6f74204b59432076604082015266195c9a599a595960ca1b606082015260800190565b5f8261242157634e487b7160e01b5f52601260045260245ffd5b500490565b80820281158282048414176120575761205761235356fea2646970667358221220fcedf014e62919ec1bca78b6b998ec627aa4b546617a2fc1366bf4e887bc778d64736f6c634300081c0033","linkReferences":{}},"methodIdentifiers":{"BPS_DENOMINATOR()":"e1a45218","SUSTAINABILITY_TAX_BPS()":"a0433231","VOLUME_THRESHOLD()":"6faf454d","addCommitment(bytes32)":"9f7ad1d1","approveFinalRelease(uint256)":"82fe4723","claim(uint256,uint256)":"c3490263","claimWithZKProof(uint256,uint256,bytes32,bytes)":"541f5b9b","closeGrant(uint256)":"d9591eec","commitmentCount()":"c44956d1","commitments(bytes32)":"839df945","createGrant(address)":"da513249","createGrant(address,uint256,bool)":"30d01c15","getGrantDetails(uint256)":"f1b591d6","grants(uint256)":"0c0debea","isCommitmentExists(bytes32)":"a2fa4909","isNullifierUsed(bytes32)":"22dc7b4c","kycRequired()":"b9699091","merkleRoot()":"2eb4a7ab","nextGrantId()":"bb8b3ea9","nullifiers(bytes32)":"2997e86b","owner()":"8da5cb5b","renounceOwnership()":"715018a6","requiresFinalApproval(uint256)":"76d5342e","setKYCRequired(bool)":"e86131fa","setZKProofEnabled(bool)":"1a55b6b2","setZKVerifier(address)":"c5090346","sustainabilityFund()":"89444a05","topUp(uint256)":"50017f3e","transferOwnership(address)":"f2fde38b","updateMerkleRoot(bytes32)":"4783f0ef","updateRecipient(uint256,address)":"b3d50e37","useNullifier(bytes32)":"32e54c79","zkProofEnabled()":"55e877e1","zkVerifier()":"d6df096d"},"id":1}